:020000041008E2
:4000000000780408EB0208100D00000051030810510308105103081051030810000000000000000000000000000000004D0308104D030810000000004D0308104D030810DA
:400040004D0308104D0308104D0308104D0308104D0308104D0308104D0308104D0308104D0308104D0308104D0308104D0308104D0308104D0308104D0308104D03081000
:400080004D0308104D0308104D0308104D0308104D0308104D0308104D0308104D0308104D0308104D0308104D0308104D0308104D0308104D0308104D0308104D030810C0
:4000C0004D0308104D0308104D0308104D0308104D0308104D0308104D0308104D0308104D0308104D0308104D0308104D0308104D0308104D0308104D0308104D03081080
:400100004D0308104D0308104D0308104D0308104D0308104D0308104D0308104D0308104D0308104D0308104D0308104D0308104D0308104D0308104D0308104D0308103F
:400140004D0308104D0308104D0308104D0308104D0308104D0308104D0308104D0308104D0308104D0308104D0308104D0308104D0308104D0308104D0308104D030810FF
:400180004D0308104D0308104D0308104D0308104D0308104D0308104D0308104D0308104D0308104D0308104D0308104D0308104D0308104D0308104D0308104D030810BF
:4001C0004D0308104D0308104D0308104D0308104D0308104D0308104D0308104D0308104D0308104D0308104D0308104D0308104D0308104D0308104D0308104D0308107F
:400200004D0308104D0308104D0308104D0308104D0308104D0308104D0308104D0308104D0308104D0308104D0308104D0308104D0308104D0308104D0308104D0308103E
:400240004D0308104D0308104D0308104D0308104D0308104D0308104D0308104D0308104D0308104D0308104D0308104D0308104D0308104D0308104D0308104D030810FE
:400280004D0308104D0308104D03081010B5054C237833B9044B13B10448AFF300800123237010BDEC48020800000000EC250810084B10B51BB108490848AFF30080084806
:4002C000036803B910BD074B002BFBD0BDE81040184700BF00000000F0480208EC250810BC420208000000007047FFF7FDFF72B6104C114DAC4209DA21686268A368043B43
:40030000A2BFC858D050FAE70C34F3E70B490C4A00209142BCBF41F8040BFAE709480A490860BFF34F8F00F041F900F01BF900F01DF8FEE7F025081008260810EC4802087B
:40034000584B02080040020808ED00E0FEE7FEE700B504207146084202D0EFF3098001E0EFF30880043000F047FEFEE700B5ADF6040D4FF400620021684601F00BFF62B647
:4003800000F0B6FE4021684600F00AF80146034B18604FF0A05000F00FF8FEE7084B0208002305E02B2202FB03F240F8232001338B42F7D3704700BF10B50C4600F036FDE6
:4003C000204610BD08B5012000F048FC08BD00BF704700BF5C4AD2F8803303F00F0303F1D00152F8212002F00702032A04D0042A05D092B9554914E0554A116811E003F16D
:40040000C002514951F8222002F01F02112A06D0132A04D04FF4FA4103E04E4901E04FF400418BBB484BD3F8902502F00100D3F88825C2F30172D3F8883513F0405F07D056
:40044000414BD3F88835C3F30173012B02D102E0012300E0002303B108B9032A46D13A48D0F88025C2F31103D0F88425C2F30C02D0F88005C0F300600130B1FBF2F202FB73
:4004800003F2B2FBF0F131E0012B2FD12E4BD3F8402602F00100D3F80026C2F30172D3F8003613F0405F07D0274BD3F80036C3F30173012B02D102E0012300E0002303B1F3
:4004C00008B9032A12D12048D0F8002602F07F02D0F80036C3F30423D0F80006C0F3044002FB01F2B2FBF3F2B2FBF0F1164BD3F88033C3F3011321FA03F215494A60164893
:40050000D0F89030C3F3072301330069000E0130B2FBF0F08860B2FBF3F3CB600B6103F5742202F23F220D48A0FB0202C2F387420A7503F2E7330A4AA2FB03239B098B614E
:40054000DB03CB61704700BF0000264000127A008C42020800366E010000214083DE1B43D34D621008B50D4800F0AAFDFFF730FFFFF730FF00221146042000F037F90848DA
:4005800000F0CAF9074B1B6893F8513013B1064800F032FA00F042FC08BD00BFB0240810084902080C4B0208F821081008B500F080FD074AD2F8883043F47003C2F88830D5
:4005C000BFF34F8FBFF36F8F00F077FD08BD00BF00ED00E038B50D4B9A680D4B9A420FD10D46044621B940F237110A4800F0F4FC04F11003064A52F8230042F8235038BD21
:400600001030054B53F8200038BD00BF00ED00E000400208342208100000081048B338B504460D464368072B03D93221134800F0D3FCB4F900306268002B08DB5201D2B237
:4006400003F1604303F5614383F8002305E003F00F035201D2B20A49CA540A4B9A680A4B9A4208D12946B4F90000FFF7B3FF002038BD06487047002038BD00BF34220810F6
:4006800014ED00E000ED00E0004002080100560038B50B4B1B68D3F8B4301B58002B0DDA0D4604460B0C1B0423B140F2D521054800F092FCA9B26160002038BD024838BDE7
:4006C0000C4B02087822081001008A0038B50368002B01DA002300E0094B73B90D460446C2600B0C1B0423B140F2BB21054800F073FCA9B2A160002038BD014838BD00BF8A
:4007000001008A007822081038B504460D4619B99921084800F060FC074B1B68D3F8B4301B59002B03DAE3682B60002038BD034838BD00BFB82208100C4B020801008A0002
:40074000254B1B6893F8313083423AD900293AD00B6813F01F0F38D170B50D4604461E4B1B6893F83130984204D340F2C3111B4800F032FC184B1B68186AB3F8B03004FB1E
:400780000304174E34602A68D2080021686801F001FD00212046FFF77BFF346825B940F293310E4800F018FC2A4600212046FFF78DFF60B900210A4B1868FFF769FF40B94D
:4007C00070BD084870470748704706487047064870BD054870BD00BF0C4B020878220810884A020803018A0001018A0010B504461346B2B9A9B9124B1B6893F83130984222
:4008000004D340F2C3110F4800F0E6FB0C4B1B681A6AB3F8B03004FB03240B4B1C60002010BD43B149B1084A51609360111D2046FFF786FF10BD054810BD044810BD00BF33
:400840000C4B020878220810884A020803018A002DE9F0411B4B1B68DC68236883422CD90D464609A0EB4610012303FA00F819B900F01FFC074600E00027124B186803681D
:40088000002B01DA002300E00F4B83B9626852F8263018EA030F05D023EA080342F82630002400E0094C0021FFF7F2FE00E0084C25B9384600F001FC00E0064C2046BDE884
:4008C000F08100BF884A020801008A00020188000301880004018A000B4B1B68DB681A6882420CD94109A0EB4110012202FA00F05B6853F82130184203D004487047044864
:4009000070470448704700BF884A02080101880004018A0000018800024B1B680BB9014B18607047944A02082DE9F8430446884691461D46089F2C4B1B681BB9B5212B4868
:4009400000F04AFB284B1B682C2000FB04F01C18EEB21E50C5F3072363602D0CA560244B1B6893F831309E4204D340F2C311214800F032FB1E4B1B68196AB3F8B02006FBE0
:4009800002162661666893F832309E4204D340F2DF11184800F020FB154B1B681D6A803605EB46156561A668330C1B0423B14FF4FF71104800F010FB330C1B0423B140F2BE
:4009C000FF110C4800F008FBB3B243EA0646AE60C4F81C90C4F820800023A36117B1B7F90030A381BDE8F883944A0208F82208100C4B020878220810F0B58FB0044618B9B1
:400A00005221274800F0E8FAA369072B03D95621234800F0E1FAE36A1BB95821204800F0DBFA236B1BB959211D4800F0D5FA07AD04F114060FCE0FC537682F6002AD2646B7
:400A40000FCE0FC533682B60164B1B68B3F93620079B1344ADF83030089B0D93A26AE16A0CAD00953B460A98FFF75EFF00210091069B0A460598FFF757FF216B2846FFF7E1
:400A8000CDFDBDF93030002B08DB590903F01F03012202FA03F3044A42F821300FB0F0BDF82208100C4B020800E100E0F8B506460F461D4614461AB9FD211F4800F08CFA4A
:400AC0001E4B1B681BB9FE211B4800F085FA1B4B1B682C2101FB063001FB07314B68012202FA03F31B04466802FA06F60269EAB18F69EFB91268002A01DA002200E0104A9B
:400B0000C2B92288134323600369DC6001238B614D620469330C1B0423B140F2BB21094800F05AFAB2B2A2600020F8BD0648F8BD0648F8BD0548F8BDF8220810944A0208B1
:400B400001008A007822081004028A0007028A00F8B505460F4616460E4B1B6823B94FF4AF710D4800F038FA0A4B1B682C2404FB0534236A23B94FF4B171074800F02CFA47
:400B8000E369B34204D9236A43F826700020F8BD0248F8BD944A0208F82208100A028A0070B582B000230193044620B940F2D111284800F011FA236923B94FF4E971254813
:400BC00000F00AFA636923B940F2D311214800F003FA236A23B94FF4EA711E4800F0FCF96369DD682A0C20D012041A601B682069194B1B68D3F8B430C358002B15DA01A953
:400C0000FFF782FD60B9019803681E0CDBB2E269934206D2226A52F8233013B1984700E0002631462069FFF733FDADB275B16369ADB21D601B68636A1BB19847002363626B
:400C400002E0A36A03B198470023A36163691B6802B070BDF82208100C4B020810B50446074B1B6823B940F2B111064800F0B4F9034B1B682C2000FB0430FFF791FF10BDCC
:400C8000944A0208F8220810C0F30800B0FA80F0400970471F4B98422DD00CD840282ED003D8E8B1102828D02FE0802829D0B0F5807F28D029E0184B984228D006D8B0F10D
:400CC000204F0DD0154B984212D01EE0144B98420AD00133984209D0023B984215D101E0002070470F4870470F4870470F4870474FF4A0007047074870470D4870470D48B4
:400D000070470D487047034870470C4870474FF4A400704706005200010000F0090000A0040000F0010052000200520003005200010050000200500005005200FF00520018
:400D400038B5124B1B6893F83130012B04D840F2C3110F4800F040F90C4B1D682A6AB5F8B03013442C46D5F8B420D358002B0BDB084B1868FFF78EFF6B6801229A60636878
:400D80009B68002BFBD138BD034838BD0C4B020838230810984A0208020050001A4B186128B102230370FF23437000234380174B1B6893F850202AB300B583B0B3F938302F
:400DC000ADF800300023019311496846FFF726FCBDF90030002B08DB590903F01F03012202FA03F30B4A42F82130084B1B6893F8513023B1022208490120FFF7A9FE03B04B
:400E00005DF804FB704700BF984A02080C4B02082D43020800E100E0E543020808B50248FFF7BCFF08BD00BFAC4A020838B505460C46FFF729FF002833D0002C33D0FFF7FA
:400E4000C9FA1A4B1A4A1A6000225A609D60DC60184B1B6893F85220EAB11968D3F88430CA58CB58C3F30721120E531C01FB0333114901FB03F3114A12681149A1FB0221BB
:400E80008909B3FBF1F101F5195108314FF4807001F0AAF938BD00214FF4807001F0A4F938BD084838BD074838BD00BF984A0208000100050C4B0208C0EA210190420208A1
:400EC000D34D6210060052002DE9F04104460D46174698469DF81860072903D9D921354800F07AF837F00F0303D0DA21314800F073F8B8F1010F03D9DB212E4800F06CF8C1
:400F000036F01F0303D0DC212A4800F065F822680123AB4022EA030308F0010808FA05F843EA08032360244B1B6893F87D100B59A8000F22824023EA020207F00F0303FA54
:400F400000F717430F51072D04D94FF422711B4800F042F836F01F0304D040F28921174800F03AF8144B1B689A69A41AE4095B6924011919032D0DD81959ED001F22AA4089
:400F800021EA020206F01F0606FA05F515431D51BDE8F081043D4A68ED001F23AB4022EA030306F01F0606FA05F51D434D60BDE8F08100BF782308100C4B0208B823081014
:400FC00008B5034B1B7800FB03F000F069F808BDA042020801BEFEE738B50D46044C18220146204601F0DEF8A5610020FFF7F2FF58480208FEE700BF08B50268254BDA6154
:4010000042681A6282685A62C2689A620269DA6242691A6382695A63C2699A631E4A916AD963D16A1964516A5964516B9964926BDA64F1EE103A13F0900F27D0026A154BCE
:401040001A65426A5A65826A9A65C26ADA65026B1A66426B5A66826B9A66C26BDA66026C1A67426C5A67826C9A67C26CDA67026DC3F88020426DC3F88420826DC3F8882096
:40108000C26DC3F88C20026EC3F89020FFF7B2FF08BD00BF5848020800ED00E0000000000230800803D001300238FCD100BF00BF7047EFF3108072B6704780F31088704710
:4010C000014B1860704700BF0C4B020808B5074B1B7833B900F04EF800F088F80122034B1A7000F01BF800F079FA08BDEC4A020810B5FFF7EBFF044610B900F0B7F9044619
:4011000014B900F04DF9044600F0FCF80028FBD100F0F0F800F0B6F8204610BD70B500230AE0124A191D02EB8100002444604FF0FF3042F821000133002BF2D00C4C012381
:401140000FE06668A27E094B2B4400211976012A05D1206918B1228BF17901F01BF820342B465D1E002BECD170BD00BF104B02086C250810F8B51B4D40220021284601F098
:4011800009F847F292132B804FF410636B8041F66A03AB8008236B8304232B77124C04F124060FCEC5F81E00C5F82210C5F82620C5F82A303388EB852146043401230CE03B
:4011C000A268238B04E011F8013B53720A320346581E002BF7D120342B465D1E002BEFD1F8BD00BF104B0208682508100023024AD380024A13607047104B0208004B0208C0
:40120000C9B2062902D083180021197130F8121000EB42035980024400231372704700BF70B506460D46012305E0224629463046FFF7E6FF23465C1E002BF6D170BD00BF7F
:4012400008B5064B03EB4013986801EB81014A00997E1044FFF7E4FF08BD00BF6C25081038B50546064B03EB40131B8B04E021462846FFF7E5FF23465C1E002BF7D138BD28
:401280006C25081010B5012303E02046FFF7E8FF23465C1E002BF8D110BD00BFF8B505460D4B03EB40135E681B8B10E00A4B03EB45139F6804EB84025000DA6904EB440148
:4012C0008B001A44318A385A00F058FF23465C1E002BEBD1F8BD00BF6C25081010B5012303E02046FFF7DAFF23465C1E002BF8D110BD00BF08B5FFF7F1FF08BD00230B731D
:40130000704700BF024BD86800F08000704700BF104B0208034B0340034AD0681843D060704700BF80000100104B0208034B0340034AD06820EA0300D060704780000100D7
:40134000104B020810B50E4BDB6813F4803F0DD170B9430904330A4A52F8233000F01F02D34013F0010F05D1012404E0112402E0012400E000240CB900F05CFD204610BDCF
:40138000104B020808B5054BDB6813F4803F03D100F0A4FC002008BD112008BD104B02080F4BDB6813F0800F14D110B500244FF0FF330CE02046FFF7C5FF034630B9002240
:4013C000084B1A70FFF7DEFF034606E00134002CF0D002E0112318467047184610BD00BF104B0208044B020830B583B00025074C08E02179002300930E222068FFF764FD43
:4014000008340135002DF4D003B030BDA0250810704700BF10B50146124BB3F90030002B0DDB5A0903F01F03012404FA03F320320D4840F82230BFF34F8FBFF36F8F094CA7
:401440002046FFF7EBF8B4F90030002B08DB590903F01F03012202FA03F3034A42F8213010BD00BF2C22081000E100E0F0B589B04FF47A73ADF8003040F65503ADF80230E3
:401480004FF41663ADF80430454B1A7F4CF25033B3FBF2F3ADF80C3000252E4644E0414B03EB45135C680C23238000232373BDF80C303D4AA2FB03235B09274627F80A3FE7
:4014C0005521284600F07CFD0497384B1B788DF81830374B1A884FF47A7303FB02F2354BA3FB0213D21A03EB5203C3F3CF23ADF80E30684600F0EAFD2F4B984203D906260D
:4015000001E05B006381BDF80C10638941F2707202FB03F29142F4D8032BF2D908AB03EB850343F8040C0135002DB8D0002420E01C4B03EB44135D685521204600F040FD32
:40154000064305F10A03049308AB03EB840353F8043C0293154B1B788DF81830EB89ADF8063005F110030593684600F0D5FD28800134002CDCD000240CE00A4B03EB4413C1
:4015800059682046FFF7BAFE5521204600F018FD06430134002CF0D0304609B0F0BD00BF104B02086C250810F1197605B0420208B242020801011000870D010010B5002453
:4015C00007E0054B03EB441359682046FFF796FE0134002CF5D010BD6C25081008B5FFF7EDFFFFF701FF00F0FDF9002008BD00BF70B5002510E06B01094AD658002404E0D4
:4016000006EBC40000F0AEFB0134054B03EB45131B7E9C42F4D30135002DECD070BD00BF6C25081038B5114D2A689369104CE31ADB0951691B01CA5822F4F852CA500223F2
:4016400063602B6893F87D20135923F0F00343F0600313510120FFF7B3FC2B6893F87D20135923F0F003135138BD00BF0C4B0208800332400E4B1A780E4B03EB42135B68D5
:401680000D4AD2F8D02091B2188801238340013B994206D2094B1B680949097823F811207047064A12680649097822F811307047064B02086C25081000003640504B0208E8
:4016C000A825081038B520490A78204B03EB421250680A7803EB42131A7E013A1C4B1B78DBB29A421AD91A4C23780133DBB223700D460A78154B03EB42139968237803EB83
:4017000083035A000A44134B1A6000F009FA2878217800F017FB00F063FA38BD00220C4B1A704FF48030FFF701FE0B4B1B78012B02D1FFF76DFE38BD8020FFF7F7FD074A2F
:4017400013890133138138BD064B02086C250810054B0208504B0208044B0208104B020808B5074B4FF483721A601B68FFF782FF044A1389013313810348FFF7D7FD08BD08
:40178000F0003640104B02088000010010B50B4B1B785B010A4AD3580A4A147803EBC404094B4FF483721A601B68FFF763FF204600F0D8FAFFF786FF10BD00BF064B020853
:4017C0006C250810054B0208F000364001390843014B1860704700BF000236400E4B1B6823F4F8730D4A117F0D4AB2FBF1F20D498A4204D843F02003074A136070470A49FB
:401800008A4204D843F03003034A1360704743F04003014A13607047AC420208104B020880F0FA02001BB70000366E01044A054B1A604FF0C17203F580731A60704700BF93
:401840000000830100043640084A136803F07F0343F0C17343F48033136002F58072136803F07F0343F400031360704700043640074A136843F0805343F001031360054AE2
:40188000054B1A604FF0C17203F580731A607047A8023640000083010004364010B40488012000FA04F4013C04EB840303FA00F00C4BA3FB00035B0901335818844200D217
:4018C00020468B4201D8C91A00E00021914203D8904203D2062002E0062000E000205DF8044B70471F85EB510023154A1360154902F5927211600432136006212C3A1160D4
:40190000012211490A6090390A60104A4FF48371116012680E4A136003220E4B1A604FF4FA6300E0013B094A126812F0040F01D1002BF7D113B90822064B1A60704700BFB4
:401940008C0136400101010080023640F0003640F8003640400336401B4B4FF483721A601B681A4BB3F90030002B08DB590903F01F03012202FA03F3154A42F82130002359
:40198000144A136030321360043213602C3A13605021983A11600121643A11600C3A136002220D4B1A604FF4FA6300E0013B0B4AD2F8842012F0070F01D0002BF6D140F2DF
:4019C0000132074B1A607047F00036402C22081000E100E080023640F8003640000036404003364070B5FFF703FEFFF71BFE4FF480323E4B1A603E48036843F0805343F0C2
:401A00000103036000233B4A136002F5E07213600C32136060321360A2F5CE72136002F582721360083A1360334C2360A2F5807213604FF0487102F5A87211602F4D2A68CF
:401A400092F87D602E4AB15821F0F001B15029688D69521BD2094D691201A95821F4F85141F48061A95027490A6842F480520A600121254A1160026842F080520A43026002
:401A80004FF0807221490A6040F64130A1F58E71086001F584710B602260FFF7C7FE1C4B1B7F013BFF2B0BD8144A12689068B2F87410425822F47F421B029BB213434350DE
:401AC000FFF78CFE134B1B6843F0004343F48053114A13600F22114B1A600022A3F588731A600A2203F590731A6070BD04023640A8023640F4003640840236400C4B0208D0
:401B00008003324094023640A0023640A4023640104B0208AC420208000036400003364038B50546FFF7C5FA0D490B6823F07F020C4B1C7825446B7A13430B60FFF7BDFA33
:401B4000FFF7B7FA08490B6823F07F02074B1B681C44637A13430B60FFF7AFFA38BD00BF00043640A825081000053640504B020810B401228A40531E40B10F2904D9A2F106
:401B80000A03B3FBF0F301E0B3FBF0F30BB9012000E018465DF8044B704700BF08B5084B1A78084B03EB42135B6859891B7B1804053B012B01D840F00070FFF707FE08BDA4
:401BC000064B02086C25081008B5027B01884089FFF7CEFF80B2014B186008BD1403364008B50D4BB3F90030002B0DDB5A0903F01F03012101FA03F32032084941F822308D
:401C0000BFF34F8FBFF36F8F0122054B1A60FFF76BFEFFF7A1FE08BD2C22081000E100E08001364008B50448FFF774FB1720FFF7C7F9FFF7D5FF08BD80000100F8B505463D
:401C4000FFF737FA06462F682C79072C04D94FF471712048FFF7C0F9A4001F4B1B6893F87D00C2590F23A34022EA0301062202FA04F30B43C3512C682D79072D04D94FF485
:401C800022711448FFF7A8F9134B1A689369E31ADB0952691B01D118032D0BD8D158ED001F20A84021EA00000B2101FA05F50543D5500BE0043D4B68ED001F22AA4023EA34
:401CC00002020B2303FA05F515434D603046FFF7F4F9F8BDAC2508100C4B020870B5134E3378134D05EB43135868124C00232370337805EB43139968237803EB83035A0058
:401D00000A440D4B1A60FFF70BFF33785B01EB58207803EBC000094B1860FFF78FFF0848FFF778FBFFF77EFF70BD00BF064B02086C250810054B0208504B0208544B0208DF
:401D40008D17081008B54001044B185800EBC100034B1860FFF772FF08BD00BF6C250810544B0208F8B50646FFF7A3F9074634683579072D04D94FF422712348FFF72CF9AC
:401D8000224B1A689369E31ADB0952691B01D118032D08D8D158ED001F2000FA05F521EA0505D55008E0043D4B68ED001F2202FA05F523EA05054D6035683479072C04D9E6
:401DC0004FF471711048FFF707F9A4000F4B1B6893F87D0042590F23A34022EA03010E2202FA04F30B43435135683479072C04D940F281310448FFF7EFF80123A3406B60E9
:401E00003846FFF75AF9F8BDAC2508100C4B020808B5064B1B78012B06D1054B1868FFF7A1FF0022014B1A7008BD00BF074B0208544B020870B50E4E06EB40135D68C0B255
:401E40000C4C2070FFF7E4FF23785B01F2580A4B1A600A4BDA6822F07F02DA602178DA680A43DA602846FFF7AFFEFFF797FE70BD6C250810064B0208544B0208104B0208F0
:401E800038B5114B03EB40135D68C9B20F4C21709968237803EB83035A000A440C4B1A60FFF7C8FF2846FFF73BFE2078094A136803EBC0001060FFF7C1FE0122064B1A7052
:401EC0000648FFF7A7FA38BD6C250810054B0208504B0208544B0208074B0208611708102DE9F84307460D4690462C4A11782C4B03EB41135E684FF0000985F800901078A9
:401F0000284B1978FFF7BCFFFFF79EFC8024B94503D22B7823EA04032B7064082B7823432B703046FFF7FCFDFFF77CFE1E4B00E0013B1E4AD26812F0800F01D0002BF7D132
:401F40001B4B1B68B3F80090002CE0D1134B1B785B01134AD358134A107803EBC000154B1860FFF7FFFE0022134B1A70FFF780FC4A4639463046FFF791FC98F800202B7856
:401F80009A4205D288F800300C4A1371A2F80690074B1B682A785A72BDE8F883064B02086C250810054B020824330300104B0208504B0208544B0208074B0208AC42020892
:401FC0002DE9F04383B004460F46394B03EB40135E6801258DF80450B14639F8098B05FA08F808F1FF3801FB08F3324AA2FB03384FEA5818C2B2304B1A703048FFF70AFA72
:402000002F4B1D71DD8000252E4B1D700AE001AA49464046FFF764FF05432A4A13780133DBB21370224B03EB4413DA7E254B1B78DBB29A42EBD89DF8043001335B08737204
:402040000022204B1A7022E0194B03EB44139A681C4B1B7803EB830302EB43021A4B1A60537A717A8B420BD35B1ADBB207FB03F363331049A1FB0313C3F34713537201E069
:40208000002353720F4A13780133DBB21370084B03EB4413DA7E0B4B1B78DBB29A42D3D80022084B1A70284603B0BDE8F08300BF6C2508101F85EB51064B020861170810B8
:4020C000AC420208054B0208504B0208014670B582890569CB8980884FF47A76584306FB00F42888B2FBF0F0B4FBF0F00C7E4B886043B0FBF3F00B884343B3FBF6F35A433E
:40210000044BB2FBF3F3012213B15B085200FBE72A8070BD00E1F505014643888A88007EC3EB03435043B3FBF0F00B698A891B88B2FBF3F3104A4343B3FBF2F3CA885343BE
:402140000A22B3FBF2F38A6846F2A710824294BF6422C8221020934205D90138C0B206284FEA5303F7D149694B2253436422B3FBF2F30B80704700BFA08601008B08138009
:402180000F23C9089372002351809080D0801081D372704702440346934202D003F8011BFAE7704710B5034642B111F8014B03F8014B013A002CF7D11A4400E010BD9342A5
:4021C00002D003F8014BFAE710BD0000F8B500BFF8BC08BC9E467047F8B500BFF8BC08BC9E4670470000000001B40248844601BC604700BF3D44020803000000010000009F
:40220000010000000000000005036000040000000100000000000000010000000604600008000000684A0208C5030810310000000700000047656E6572617465645F536F39
:40224000757263655C50536F43365C70646C5C647269766572735C7065726970686572616C5C737973696E745C63795F737973696E742E630000000047656E657261746546
:40228000645F536F757263655C50536F43365C70646C5C647269766572735C7065726970686572616C5C6970635C63795F6970635F6472762E68000047656E6572617465AD
:4022C000645F536F757263655C50536F43365C70646C5C647269766572735C7065726970686572616C5C6970635C63795F6970635F6472762E63000047656E657261746572
:40230000645F536F757263655C50536F43365C70646C5C647269766572735C7065726970686572616C5C6970635C63795F6970635F706970652E630047656E6572617465CF
:40234000645F536F757263655C50536F43365C70646C5C647269766572732F7065726970686572616C2F6970632F63795F6970635F6472762E68000047656E657261746573
:40238000645F536F757263655C50536F43365C70646C5C647269766572735C7065726970686572616C5C6770696F5C63795F6770696F2E630000000047656E657261746576
:4023C000645F536F757263655C50536F43365C70646C5C647269766572735C7065726970686572616C5C6770696F5C63795F6770696F2E6800000000000020400000244098
:40240000000000400000000000002340000030400000314000009F40000022400000104002020202020202020210101D800017007500FF03060206360410200000000000B2
:402440007FC0000000040000000000000019324B647D00804000080B100000000000FF012002001F00800004FF081018001000140018001C4044484C5000000008100000F3
:402480000800000004000000041000000012000004210000002100000016000040114002C41300138013A013200000001C0000000000214000002540000001400000344014
:4024C00000002440000031400000324000001F410000234000001140010101010101010101101010800019005500F0000501053B04101C01010000000FC00000000400001F
:4025000001010101011D3A57789600082000101208000000001F00000010000F002000023F06080E00080009000A000B24282C3034000000100000009000000088000000A3
:40254000080000008000000004F0000000F00000400200002005A000D00100018001A001200000001000000020000000A02508102E4B0208404B020800000000FC4A02085F
:402580000128000001000101F04A02080C00640028280A031E2004000000A0000000000080043240050000000000000047656E6572617465645F536F757263655C50536F34
:4025C00043365C70646C5C647269766572732F7065726970686572616C2F6770696F2F63795F6770696F2E68000000000000000000000810004002088C0200001026081045
:402600008C420208CC050000EC4802086C0200000048E80100127A0000093D0000127A0000127A0008000000401F00000000A00F2000000001000100B10208108D02081080
:402640000000000080B2C10050B3164B1B681A6AB3F8B030C3EBC303D358002BF5DA3E22114B1A6041F61E7204331A60A3F584730622C3F8182521F07F41C3F81C15D3F8F3
:402680001C35084B1A68116AB2F8B030C3EBC3030B4400225A60054BD3F81C35002BFADA704700BF0C4B02080401264000002640F8B5274B1B6893F83130052B04D840F271
:4026C000C311244800F04AFA214F3A68166AB2F8B03003EB83031E4452684FF26003D458A4B200F043FA05463B681968D3F890208A58013C032C27D8032A0CD1164A12783C
:4027000012F0FF0F07D10822B2601968D3F890208A58032AF9D01968D3F884208B588858C0F307221B0E581C02FB00000B4B03FB00F00B4B1B680B4AA2FB03239B09B0FBF4
:40274000F3F08230FFF77EFF284600F027FAF8BD0C4B0208382308100B00001640420F0090420208D34D62104378FF2B23D110B500F0FCF90446104B1B6893F83130042B63
:4027800004D840F2C3110D4800F0E8F90A4B1A68136AB2F8B02003EB8203DB685A68136843F001031360136813F0010FFBD1204600F0F4F910BD70470C4B020838230810B1
:4027C0002DE9F04707468846554B1B6893F83130012B04D840F2C311524800F0BFF9504B1B681C6AB3F8B0201444D3F8B420161993F85030002B79D04B4B1B7813F0FF0F14
:4028000002D04FF0000901E04FF00109B9F1000F38D0434B1B6893F83130052B04D840F2C311404800F09AF93D4B1A68116AB2F8B03003EB83030B44D2F8B420D358002BB3
:4028400022DB002000F0A2F9384B98421ED00023374A12690121184600F0A8F918B1354D17E0013500E00025002000F08FF92F4B984202D0304B9D42F3D92F4B9D4207D99B
:402880002C4D06E0002504E02A4D02E0294D00E00025002D41D100F069F98246274BD3F81C35002B10DA224A0121204600F086F960B94046FFF7C6FE57B13368002BFCDB7F
:4028C00000F05CF9054604E01A4D02E0194D00E01B4DB9F1000F05D00121002000F076F90028F9D1504600F059F916E000F03EF980460F4A0121204600F060F938B947B17E
:402900003368002BFCDB00F039F9054602E0094D00E00B4D404600F041F92846BDE8F0870C4B0208382308100B00001601018800984A020805005200EF4902000000264081
:4029400001005000F0B47F4B1A6855684FF0B0535B7813F0FF0F04D04FF0B0535B78DBB200E02123212B55D1116AB2F8B030C3EBC303CC18CB58002BF6DAE36843F001032A
:40298000E360146AB2F8B030C3EBC3031C44E36813F0020F2DD0E3689EB21368D2F884105958090A090401F47F01D2F88870DB591B0A41EA03633343E3601168D2F8842096
:4029C0008B5823F47F4343F410638B505D4A13681C68D3F88810635823F47F4343F41063635013681A68D3F884105158D3F88830D358544B1A68116AB2F8B030C3EBC3034F
:402A00000B4400215960116AB2F8B030C3EBC3030B445B684B4B19680C68D1F894301C44494A136943F004031361012801D030BF07E020BF454B1B7803B120BF0122434B97
:402A40001A70236803F00303022BE9D00A6AB1F8B030C3EBC303D018D358002BF6DA4FF0B0535B7813F0FF0F04D04FF0B0535B78DBB200E02123212B30D1C36813F0020F97
:402A80001FD00C68D1F88410635823F47F42C3681B0C1B0203F47F4313436350294B19680C68D1F88800235823F47F420D6AB1F8B030C3EBC3032B44DB681B0E42EA0323E4
:402AC0002350204B1A68136AB2F8B020C2EBC2021344DA6822F00102DA6026E0D5F80C311BBB1B490E681B4BD3F818451A4A106841F61E770F600621C3F818153E211160E2
:402B00004422C3F81C25134BD3F81C35002BFADA4FF0AA33C5F80C310D4B1E60A3F58473C3F8184503F582731860064B1A68116AB2F8B030C3EBC3030B4400225A60F0BC9F
:402B4000704700BF0C4B020800ED00E0B04A020808012640000026400401264001B40248844601BC604700BFD90F081001B40248844601BC604700BFB310081001B40248BB
:402B8000844601BC604700BF410D081001B40248844601BC604700BFD908081001B40248844601BC604700BFBB10081001B40248844601BC604700BFAD0A081001B4024854
:402BC000844601BC604700BFCD06081001B40248844601BC604700BF51080810000000000000000000000000000000000000000000000000000000000000000000000000A0
:0200000490303A
:02000000FDAE53
:0200000490501A
:0C0000000005E20721002101E2161EAEFF
:00000001FF