:020000041008E2
:4000000000780408F90208100D00000061030810610308106103081061030810000000000000000000000000000000005D0308105D030810000000005D0308105D0308104C
:400040005D0308105D0308105D0308105D0308105D0308105D0308105D0308105D0308105D0308105D0308105D0308105D0308105D0308105D0308105D0308105D03081000
:400080005D0308105D0308105D0308105D0308105D0308105D0308105D0308105D0308105D0308105D0308105D0308105D0308105D0308105D0308105D0308105D030810C0
:4000C0005D0308105D0308105D0308105D0308105D0308105D0308105D0308105D0308105D0308105D0308105D0308105D0308105D0308105D0308105D0308105D03081080
:400100005D0308105D0308105D0308105D0308105D0308105D0308105D0308105D0308105D0308105D0308105D0308105D0308105D0308105D0308105D0308105D0308103F
:400140005D0308105D0308105D0308105D0308105D0308105D0308105D0308105D0308105D0308105D0308105D0308105D0308105D0308105D0308105D0308105D030810FF
:400180005D0308105D0308105D0308105D0308105D0308105D0308105D0308105D0308105D0308105D0308105D0308105D0308105D0308105D0308105D0308105D030810BF
:4001C0005D0308105D0308105D0308105D0308105D0308105D0308105D0308105D0308105D0308105D0308105D0308105D0308105D0308105D0308105D0308105D0308107F
:400200005D0308105D0308105D0308105D0308105D0308105D0308105D0308105D0308105D0308105D0308105D0308105D0308105D0308105D0308105D0308105D0308103E
:400240005D0308105D0308105D0308105D0308105D0308105D0308105D0308105D0308105D0308105D0308105D0308105D0308105D0308105D0308105D0308105D030810FE
:400280005D0308105D0308105D03081010B5054C237833B9044B13B10448AFF300800123237010BDF447020800000000D4220810084B10B51BB108490848AFF300800848EA
:4002C000036803B910BD074B002BFBD0BDE81040184700BF00000000F8470208D4220810C0420208000000007047EFF3108072B6704780F310887047FFF7F6FF72B6114C12
:40030000114DAC4209DA21686268A368043BA2BFC858D050FAE70C34F3E70C490C4A00209142BCBF41F8040BFAE70A480A490860BFF34F8F00F016F900F0F0F800F01EF899
:40034000FEE70000D8220810F0220810F4470208444A02080040020808ED00E0FEE7FEE700B504207146084202D0EFF3098001E0EFF30880043000F097FDFEE708B562B6C2
:4003800000F008FEFEE700BF704700BF5C4AD2F8803303F00F0303F1D00152F8212002F00702032A04D0042A05D092B9554914E0554A116811E003F1C002514951F82220F5
:4003C00002F01F02112A06D0132A04D04FF4FA4103E04E4901E04FF400418BBB484BD3F8902502F00100D3F88825C2F30172D3F8883513F0405F07D0414BD3F88835C3F3B4
:400400000173012B02D102E0012300E0002303B108B9032A46D13A48D0F88025C2F31103D0F88425C2F30C02D0F88005C0F300600130B1FBF2F202FB03F2B2FBF0F131E0E9
:40044000012B2FD12E4BD3F8402602F00100D3F80026C2F30172D3F8003613F0405F07D0274BD3F80036C3F30173012B02D102E0012300E0002303B108B9032A12D120488E
:40048000D0F8002602F07F02D0F80036C3F30423D0F80006C0F3044002FB01F2B2FBF3F2B2FBF0F1164BD3F88033C3F3011321FA03F215494A601648D0F89030C3F30723A4
:4004C00001330069000E0130B2FBF0F08860B2FBF3F3CB600B6103F5742202F23F220D48A0FB0202C2F387420A7503F2E7330A4AA2FB03239B098B61DB03CB61704700BF77
:400500000000264000127A008C42020800366E010000214083DE1B43D34D621008B5104BD3F8802122F0404242F08042C3F88021D3F8802142F00042C3F88021D3F880218A
:4005400022F00102C3F88021FFF71EFFFFF71EFF00F022F800F028F800F0ECFB08BD00BF0000264008B5FFF7C0FE074AD2F8883043F47003C2F88830BFF34F8FBFF36F8F69
:40058000FFF7B7FE08BD00BF00ED00E008B5012000F03AFB08BD00BF08B500221146042000F0C0F808BD00BF10B5064800F076F900F0D7FC0446044800F0DCF9204600F04C
:4005C000D4FC10BD104802085020081038B50C4B9A680C4B9A420ED10D46044619B9FC21094800F051FC04F11003064A52F8230042F8235038BD1030044B53F8200038BDAC
:4006000000ED00E0004002088C2008100000081070B338B504460D464368072B03D93621154800F031FCB4F900306268002B08DB5201D2B203F1604303F5614383F8002333
:4006400005E003F00F035201D2B20C49CA540C4B9A680C4B9A420DD11DB94521064800F013FC2946B4F90000FFF7B0FF002038BD05487047002038BD8C20081014ED00E0BF
:4006800000ED00E0004002080100560038B50369002B0DDA0D4604460B0C1B0423B140F2B321044800F0F0FBA9B26160002038BD014838BDD020081001008A0038B5036833
:4006C000002B01DA002300E0094B73B90D460446C2600B0C1B0423B140F29A21054800F0D3FBA9B2A160002038BD014838BD00BF01008A00D020081038B504460D4619B953
:400700009921064800F0C0FB2369002B03DAE3682B60002038BD024838BD00BF1021081001008A000F2840D8F8B515460E46044682B979B90F2804D940F2A911214800F0FA
:40074000A3FB600100F1804000F50C101E4B18600020F8BD5DB366B316F01F0F2BD10F2C04D940F2A911174800F08EFB640104F1804404F50C14144F3C607E60BD60F208A2
:400780000021284601F03CFC00212046FFF77EFF3A4652F8040B0021FFF790FF68B900213868FFF773FF50B9F8BD084870470748F8BD0648F8BD0548F8BD0548F8BD0448A2
:4007C000F8BD00BF502108109049020803018A0001018A002DE9F0411B4B1B68DC68236883422CD90D464609A0EB4610012303FA00F819B900F0B5FB074600E00027124B77
:4008000018680368002B01DA002300E00F4B83B9626852F8263018EA030F05D023EA080342F82630002400E0094C0021FFF72EFF00E0084C25B9384600F097FB00E0064C52
:400840002046BDE8F08100BF9049020801008A00020188000301880004018A000B4B1B68DB681A6882420CD94109A0EB4110012202FA00F05B6853F82130184203D00448D5
:400880007047044870470448704700BF904902080101880004018A0000018800024B1B680BB9014B186070479C4902082DE9F8430446884691461E46089F2A4B1B681BB922
:4008C000B421294800F0E0FA072C03D9B521264800F0DAFA234B1B682C2000FB04F01C18F5B21D50C6F307236360360CA6600F2D04D940F2A9111D4800F0C6FA6D0105F1F1
:40090000804505F50C15256165680F2D04D94FF4E271164800F0B8FA154B03EB45156561A668330C1B0423B14FF4F1710F4800F0ABFA330C1B0423B140F2E3110B4800F0FB
:40094000A3FAB3B243EA0646AE60C4F81C90C4F820800023A36117B1B7F90030A381BDE8F88300BF9C490208902108105021081000102340F0B58FB0044618B950212C48C0
:4009800000F082FAA369072B03D95421284800F07BFAE36A1BB95621254800F075FAE368072B03D95721224800F06EFA236A072B03D958211E4800F067FA236B1BB95921C9
:4009C0001B4800F061FA07AE04F114050FCD0FC62F6802AD26460FCE0FC533682B60079B1933ADF83030089B0D93A26AE16A0CAD00953B460A98FFF759FF00210091069BAD
:400A00000A460598FFF752FF216B2846FFF700FEBDF93030002B08DB590903F01F03012202FA03F3034A42F821300FB0F0BD00BF9021081000E100E0F8B506460F461D46A6
:400A400014461AB9FD21264800F01EFA254B1B681BB9FE21224800F017FA072E03D9FF211F4800F011FA072F04D94FF480711C4800F00AFA1B4B1B682C2101FB063001FBCE
:400A800007314B68012202FA03F31B04466802FA06F60269EAB18F69EFB91268002A01DA002200E0104AC2B92288134323600369DC6001238B614D620469330C1B0423B1EC
:400AC00040F29A21094800F0DFF9B2B2A2600020F8BD0748F8BD0748F8BD0648F8BD00BF902108109C49020801008A005021081004028A0007028A00F8B505460F46164653
:400B0000124B1B6823B940F26111114800F0BCF9072D04D94FF4B1710D4800F0B5F90B4B1B682C2404FB0534236A23B94FF4B371074800F0A9F9E369B34204D9236A43F8F6
:400B400026700020F8BD0348F8BD00BF9C490208902108100A028A0070B582B000230193044620B94FF4EA71264800F08DF9236923B940F2D511234800F086F9636923B948
:400B80004FF4EB711F4800F07FF9236A23B940F2D7111C4800F078F96369DD682A0C1CD012041A601B6820690369002B15DA01A9FFF7A2FD60B9019803681E0CDBB2E269CC
:400BC000934206D2226A52F8233013B1984700E0002631462069FFF759FDADB275B16369ADB21D601B68636A1BB198470023636202E0A36A03B198470023A36163691B6822
:400C000002B070BD9021081010B504460B4B1B6823B94FF4DA710A4800F036F9072C04D940F2B511064800F02FF9044B1B682C2000FB0430FFF790FF10BD00BF9C4902088E
:400C4000902108101F4B98422DD00CD840282ED003D8E8B1102828D02FE0802829D0B0F5807F28D029E0184B984228D006D8B0F1204F0DD0154B984212D01EE0144B9842D4
:400C80000AD00133984209D0023B984215D101E0002070470F4870470F4870470F4870474FF4A0007047074870470D4870470D4870470D487047034870470C4870474FF480
:400CC000A400704706005200010000F0090000A0040000F0010052000200520003005200010050000200500005005200FF00520008B50C4B1B69002B12DB0B4B1868FFF7F0
:400D0000A1FF0122094BC3F88C24084BD3F80C34002BFAD1054BD3F88C34002BF5D108BD034808BD20002340A0490208000025400200500000B583B05523ADF800300023B7
:400D400001930C496846FFF763FCBDF90030002B08DB590903F01F03012202FA03F3064A42F82130022205490120FFF7C5FE03B05DF804FB4143020800E100E01543020828
:400D80002DE9F04104460D46174698469DF81860072903D9D121344800F076F837F00F0303D0D221304800F06FF8B8F1010F03D9D3212D4800F068F836F01F0303D0D42103
:400DC000294800F061F822680123AB4022EA030308F0010808FA05F843EA08032360A36AA9000F228A4023EA020207F00F0303FA01F71743A762072D04D940F245211B48A4
:400E000000F042F836F01F0304D040F24621174800F03AF804F13F4404F54E04E40904F1806404F544342401032D0DD82268ED001F23AB4022EA030306F01F0606FA05F553
:400E40001D432560BDE8F081043D6268ED001F23AB4022EA030306F01F0606FA05F51D436560BDE8F08100BFD02108101022081008B5034B1B7800FB03F000F069F808BD3C
:400E8000A042020801BEFEE738B50D46044C18220146204601F0BCF8A5610020FFF7F2FF60470208FEE700BF08B50268254BDA6142681A6282685A62C2689A620269DA62B9
:400EC00042691A6382695A63C2699A631E4A916AD963D16A1964516A5964516B9964926BDA64F1EE103A13F0900F27D0026A154B1A65426A5A65826A9A65C26ADA65026BFC
:400F00001A66426B5A66826B9A66C26BDA66026C1A67426C5A67826C9A67C26CDA67026DC3F88020426DC3F88420826DC3F88820C26DC3F88C20026EC3F89020FFF7B2FF6C
:400F400008BD00BF6047020800ED00E0000000000230800803D001300238FCD100BF00BF7047EFF3108072B6704780F31088704708B5074B1B7833B900F04EF800F088F82E
:400F80000122034B1A7000F01BF800F079FA08BDE049020810B5FFF7EBFF044610B900F0B7F9044614B900F04DF9044600F0FCF80028FBD100F0F0F800F0B6F8204610BD68
:400FC00070B500230AE0124A191D02EB8100002444604FF0FF3042F821000133002BF2D00C4C01230FE06668A27E094B2B4400211976012A05D1206918B1228BF17900F0E7
:40100000FFFF20342B465D1E002BECD170BD00BFFC49020854220810F8B51B4D40220021284600F0EDFF47F292132B804FF410636B8041F66A03AB8008236B8304232B7704
:40104000124C04F124060FCEC5F81E00C5F82210C5F82620C5F82A303388EB852146043401230CE0A268238B04E011F8013B53720A320346581E002BF7D120342B465D1E84
:40108000002BEFD1F8BD00BFFC490208502208100023024AD380024A13607047FC490208F4490208C9B2062902D083180021197130F8121000EB4203598002440023137227
:4010C000704700BF70B506460D46012305E0224629463046FFF7E6FF23465C1E002BF6D170BD00BF08B5064B03EB4013986801EB81014A00997E1044FFF7E4FF08BD00BFF5
:401100005422081038B50546064B03EB40131B8B04E021462846FFF7E5FF23465C1E002BF7D138BD5422081010B5012303E02046FFF7E8FF23465C1E002BF8D110BD00BF53
:40114000F8B505460D4B03EB40135E681B8B10E00A4B03EB45139F6804EB84025000DA6904EB44018B001A44318A385A00F03CFF23465C1E002BEBD1F8BD00BF5422081077
:4011800010B5012303E02046FFF7DAFF23465C1E002BF8D110BD00BF08B5FFF7F1FF08BD00230B73704700BF024BD86800F08000704700BFFC490208034B0340034AD06874
:4011C0001843D060704700BF80000100FC490208034B0340034AD06820EA0300D060704780000100FC49020810B50E4BDB6813F4803F0DD170B9430904330A4A52F82330A2
:4012000000F01F02D34013F0010F05D1012404E0112402E0012400E000240CB900F040FD204610BDFC49020808B5054BDB6813F4803F03D100F08CFC002008BD112008BDA7
:40124000FC4902080F4BDB6813F0800F14D110B500244FF0FF330CE02046FFF7C5FF034630B90022084B1A70FFF7DEFF034606E00134002CF0D002E01123184670471846C8
:4012800010BD00BFFC490208F849020830B583B00025074C08E02179002300930E222068FFF76EFD08340135002DF4D003B030BD88220810704700BF10B50146124BB3F9D7
:4012C0000030002B0DDB5A0903F01F03012404FA03F320320D4840F82230BFF34F8FBFF36F8F094C2046FFF793F9B4F90030002B08DB590903F01F03012202FA03F3034AA8
:4013000042F8213010BD00BF8420081000E100E0F0B589B04FF47A73ADF8003040F65503ADF802304FF41663ADF80430454B1A7F4CF25033B3FBF2F3ADF80C3000252E4645
:4013400044E0414B03EB45135C680C23238000232373BDF80C303D4AA2FB03235B09274627F80A3F5521284600F060FD0497384B1B788DF81830374B1A884FF47A7303FBB3
:4013800002F2354BA3FB0213D21A03EB5203C3F3CF23ADF80E30684600F0CEFD2F4B984203D9062601E05B006381BDF80C10638941F2707202FB03F29142F4D8032BF2D90B
:4013C00008AB03EB850343F8040C0135002DB8D0002420E01C4B03EB44135D685521204600F024FD064305F10A03049308AB03EB840353F8043C0293154B1B788DF8183021
:40140000EB89ADF8063005F110030593684600F0B9FD28800134002CDCD000240CE00A4B03EB441359682046FFF7BAFE5521204600F0FCFC06430134002CF0D0304609B0D7
:40144000F0BD00BFFC49020854220810F1197605B4420208B642020801011000870D010010B5002407E0054B03EB441359682046FFF796FE0134002CF5D010BD542208105E
:4014800008B5FFF7EDFFFFF701FF00F0F1F9002008BD00BF70B5002510E06B01094AD658002404E006EBC40000F096FB0134054B03EB45131B7E9C42F4D30135002DECD08C
:4014C00070BD00BF5422081010B50B4A136823F4F8531360094C02236360A36A23F0F00343F06003A3620120FFF7C2FCA36A23F0F003A36210BD00BF7000314080033240CE
:401500000E4B1A780E4B03EB42135B680D4AD2F8D02091B2188801238340013B994206D2094B1B680949097823F811207047064A12680649097822F811307047FA490208F1
:4015400054220810000036403C4A02089022081038B520490A78204B03EB421250680A7803EB42131A7E013A1C4B1B78DBB29A421AD91A4C23780133DBB223700D460A78B8
:40158000154B03EB42139968237803EB83035A000A44134B1A6000F001FA2878217800F00BFB00F05BFA38BD00220C4B1A704FF48030FFF70DFE0B4B1B78012B02D1FFF7CF
:4015C00079FE38BD8020FFF703FE074A13890133138138BDFA49020854220810F94902083C4A0208F8490208FC49020808B5074B4FF483721A601B68FFF782FF044A138948
:40160000013313810348FFF7E3FD08BDF0003640FC4902088000010010B50B4B1B785B010A4AD3580A4A147803EBC404094B4FF483721A601B68FFF763FF204600F0CCFAAA
:40164000FFF786FF10BD00BFFA49020854220810F9490208F000364001390843014B1860704700BF000236400E4B1B6823F4F8730D4A117F0D4AB2FBF1F20D498A4204D875
:4016800043F02003074A136070470A498A4204D843F03003034A1360704743F04003014A13607047B0420208FC49020880F0FA02001BB70000366E01044A054B1A604FF011
:4016C000C17203F580731A60704700BF0000830100043640084A136803F07F0343F0C17343F48033136002F58072136803F07F0343F400031360704700043640074A136855
:4017000043F0805343F001031360054A054B1A604FF0C17203F580731A607047A8023640000083010004364010B40488012000FA04F4013C04EB840303FA00F00C4BA3FB3C
:4017400000035B0901335818844200D220468B4201D8C91A00E00021914203D8904203D2062002E0062000E000205DF8044B70471F85EB510023154A1360154902F59272CA
:4017800011600432136006212C3A1160012211490A6090390A60104A4FF48371116012680E4A136003220E4B1A604FF4FA6300E0013B094A126812F0040F01D1002BF7D155
:4017C00013B90822064B1A60704700BF8C0136400101010080023640F0003640F8003640400336401B4B4FF483721A601B681A4BB3F90030002B08DB590903F01F030122A3
:4018000002FA03F3154A42F821300023144A136030321360043213602C3A13605021983A11600121643A11600C3A136002220D4B1A604FF4FA6300E0013B0B4AD2F884206E
:4018400012F0070F01D0002BF6D140F20132074B1A607047F00036408420081000E100E080023640F8003640000036404003364010B5FFF70FFEFFF727FE4FF480323C4BCE
:401880001A603C490B6843F0805343F001030B600023394A136002F5E07213600C32136060321360A2F5CE72136002F582721360083A136031480360A2F5807213604FF00F
:4018C000487402F5A87214602D4CA26A22F0F002A262A4F58134A4F58874226822F4F85242F48062226004F5A02404F50974226842F4805222600124224A14600A6842F0C3
:40190000805222430A604FF0807204390A6040F64134A1F58E710C6001F584710B600260FFF7CAFE184B1B7F013BFF2B09D81749D1F8002822F47F421B029BB21343C1F827
:401940000038FFF791FE124B1B6843F0004343F48053104A13600F220F4B1A600022A3F588731A600A2203F590731A6010BD00BF04023640A8023640F4003640840236401A
:4019800080033240A0023640FC49020800000140B0420208000036400003364038B50546FFF7DFFA0D490B6823F07F020C4B1C7825446B7A13430B60FFF7D7FAFFF7D1FAB9
:4019C00008490B6823F07F02074B1B681C44637A13430B60FFF7C9FA38BD00BF0004364090220810000536403C4A020810B401228A40531E40B10F2904D9A2F10A03B3FB8A
:401A0000F0F301E0B3FBF0F30BB9012000E018465DF8044B704700BF08B5084B1A78084B03EB42135B6859891B7B1804053B012B01D840F00070FFF70FFE08BDFA4902088B
:401A40005422081008B5027B01884089FFF7CEFF80B2014B186008BD1403364008B50D4BB3F90030002B0DDB5A0903F01F03012101FA03F32032084941F82230BFF34F8FF4
:401A8000BFF36F8F0122054B1A60FFF773FEFFF7A9FE08BD8420081000E100E08001364008B50448FFF788FB1720FFF7E1F9FFF7D5FF08BD80000100F8B50546FFF751FA7A
:401AC00006462F682C79072C04D94FF464711F48FFF7DAF9A400BA6A0F23A34022EA0301062202FA04F30B43BB622C682D79072D04D940F245211548FFF7C6F904F13F4327
:401B000003F54E03DB0903F1806303F544331B01032D0BD81A68ED001F21A94022EA01010B2202FA05F50D431D600BE0043D5A68ED001F21A94022EA01010B2202FA05F538
:401B40000D435D603046FFF710FAF8BD9422081070B5134E3378134D05EB43135868124C00232370337805EB43139968237803EB83035A000A440D4B1A60FFF70FFF33788A
:401B80005B01EB58207803EBC000094B1860FFF793FF0848FFF790FBFFF782FF70BD00BFFA49020854220810F94902083C4A0208404A02081916081008B54001044B185869
:401BC00000EBC100034B1860FFF776FF08BD00BF54220810404A0208F8B50646FFF7C1F9074634683579072D04D940F245212248FFF74AF904F13F4303F54E03DB0903F13E
:401C0000806303F544331B01032D08D81A68ED001F2101FA05F522EA05051D6008E0043D5A68ED001F2101FA05F522EA05055D6035683479072C04D94FF464710E48FFF751
:401C400023F9A400AA6A0F23A34022EA03010E2202FA04F30B43AB6235683479072C04D940F247310448FFF70FF90123A3406B603846FFF77AF9F8BD9422081008B5064B55
:401C80001B78012B06D1054B1868FFF7A5FF0022014B1A7008BD00BFFB490208404A020870B50E4E06EB40135D68C0B20C4C2070FFF7E4FF23785B01F2580A4B1A600A4BA4
:401CC000DA6822F07F02DA602178DA680A43DA602846FFF7B7FEFFF79FFE70BD54220810FA490208404A0208FC49020838B5114B03EB40135D68C9B20F4C2170996823788A
:401D000003EB83035A000A440C4B1A60FFF7C8FF2846FFF743FE2078094A136803EBC0001060FFF7C9FE0122064B1A700648FFF7C3FA38BD54220810F94902083C4A0208B5
:401D4000404A0208FB490208ED1508102DE9F84307460D4690462C4A11782C4B03EB41135E684FF0000985F800901078284B1978FFF7BCFFFFF7AEFC8024B94503D22B78D6
:401D800023EA04032B7064082B7823432B703046FFF704FEFFF784FE1E4B00E0013B1E4AD26812F0800F01D0002BF7D11B4B1B68B3F80090002CE0D1134B1B785B01134A57
:401DC000D358134A107803EBC000154B1860FFF703FF0022134B1A70FFF790FC4A4639463046FFF7A1FC98F800202B789A4205D288F800300C4A1371A2F80690074B1B681C
:401E00002A785A72BDE8F883FA49020854220810F949020824330300FC4902083C4A0208404A0208FB490208B04202082DE9F04383B004460F46394B03EB40135E6801250A
:401E40008DF80450B14639F8098B05FA08F808F1FF3801FB08F3324AA2FB03384FEA5818C2B2304B1A703048FFF726FA2F4B1D71DD8000252E4B1D700AE001AA4946404669
:401E8000FFF764FF05432A4A13780133DBB21370224B03EB4413DA7E254B1B78DBB29A42EBD89DF8043001335B0873720022204B1A7022E0194B03EB44139A681C4B1B7802
:401EC00003EB830302EB43021A4B1A60537A717A8B420BD35B1ADBB207FB03F363331049A1FB0313C3F34713537201E0002353720F4A13780133DBB21370084B03EB441301
:401F0000DA7E0B4B1B78DBB29A42D3D80022084B1A70284603B0BDE8F08300BF542208101F85EB51FA490208ED150810B0420208F94902083C4A0208014670B582890569C3
:401F4000CB8980884FF47A76584306FB00F42888B2FBF0F0B4FBF0F00C7E4B886043B0FBF3F00B884343B3FBF6F35A43044BB2FBF3F3012213B15B085200FBE72A8070BD64
:401F800000E1F505014643888A88007EC3EB03435043B3FBF0F00B698A891B88B2FBF3F3104A4343B3FBF2F3CA8853430A22B3FBF2F38A6846F2A710824294BF6422C82250
:401FC0001020934205D90138C0B206284FEA5303F7D149694B2253436422B3FBF2F30B80704700BFA08601008B0813800F23C9089372002351809080D0801081D3727047C9
:4020000002440346934202D003F8011BFAE7704710B5034642B111F8014B03F8014B013A002CF7D11A4400E010BD934202D003F8014BFAE710BD0000F8B500BFF8BC08BC64
:402040009E467047F8B500BFF8BC08BC9E4670470300000001000000010000000000000005036000040000000100000000000000010000000604600008000000704902089E
:402080008D050810310000000700000047656E6572617465645F536F757263655C50536F43365C70646C5C647269766572735C7065726970686572616C5C737973696E7473
:4020C0005C63795F737973696E742E630000000047656E6572617465645F536F757263655C50536F43365C70646C5C647269766572735C7065726970686572616C5C697014
:40210000635C63795F6970635F6472762E68000047656E6572617465645F536F757263655C50536F43365C70646C5C647269766572735C7065726970686572616C5C69702E
:40214000635C63795F6970635F6472762E63000047656E6572617465645F536F757263655C50536F43365C70646C5C647269766572732F7065726970686572616C2F69704D
:40218000632F63795F6970635F6472762E68000047656E6572617465645F536F757263655C50536F43365C70646C5C647269766572735C7065726970686572616C5C6970DB
:4021C000635C63795F6970635F706970652E630047656E6572617465645F536F757263655C50536F43365C70646C5C647269766572735C7065726970686572616C5C677013
:40220000696F5C63795F6770696F2E630000000047656E6572617465645F536F757263655C50536F43365C70646C5C647269766572735C7065726970686572616C5C6770F7
:40224000696F5C63795F6770696F2E680000000020000000882208101A4A02082C4A020800000000F04902080128000001000101E44902080C00640028280A031E20040025
:402280000000A0000000000080043240050000000000000047656E6572617465645F536F757263655C50536F43365C70646C5C647269766572732F70657269706865726157
:4022C0006C2F6770696F2F63795F6770696F2E68000000000000000000000810004002088C020000F82208108C420208D4040000F4470208500200000048E80100127A00BF
:4023000000093D0000127A0000127A0008000000401F00000000A00F02FF00002000000001000100B10208108D0208100000000080B2C200E8B10F4B1B68002BFBDA3E21CB
:402340000D4B196041F61E7104331960A3F584730621C3F8181522F07F42C3F81C25D3F81C350022034B5A60044BD3F81C35002BFADA7047E000234004012640000026402E
:4023800008B54378FF2B0ED100F018FA064BDB685A68136843F001031360136813F0010FFBD100F0FBF908BD8000234038B54FF260034B4AD3589CB200F000FA0546494BD1
:4023C0009A68631E032B00F28780DFE803F002234465032A06D10822434B9A60414B9B68032BFBD03F4A13691069C0F307221B0E581C02FB00003D4B03FB00F03C4B1B68F9
:402400003C4AA2FB03239B09B0FBF3F08230FFF78FFF61E0032A06D10822334B9A60314B9B68032BFBD02F4A13691069C0F307221B0E581C02FB00002C4B03FB00F02C4BCC
:402440001B682C4AA2FB03239B09B0FBF3F08230FFF76EFF40E0032A06D10822224B9A60204B9B68032BFBD01E4A13691069C0F307221B0E581C02FB00001C4B03FB00F015
:402480001B4B1B681B4AA2FB03239B09B0FBF3F08230FFF74DFF1FE0032A06D10822124B9A60104B9B68032BFBD00E4A13691069C0F307221B0E581C02FB00000B4B03FBF3
:4024C00000F00B4B1B680B4AA2FB03239B09B0FBF3F08230FFF72CFF284600F05FF938BD0000254000002140A000234040420F0090420208D34D6210F8B505460E462A4BC2
:402500001B69002B1FDB002000F040F9274B98421BD00023264A0121184600F047F918B1244C15E0013400E00024002000F02EF91E4B984202D0204B9C42F3D91E4B9C4220
:4025400005D91C4C04E01B4C02E01A4C00E000243CBB00F033F90746184BD3F81C35002B11DA174A0121174800F000F968B93046FFF7DEFE5DB1134B1B69002BFBDB00F074
:40258000EDF8044604E00B4C02E00A4C00E00E4C0121002000F0F2F80028F9D1384600F0FDF82046F8BD00BFA000234001018800AC42020805005200EF4902000000264078
:4025C000A04902082000234001005000394B1B68002BFBDA30B4374BDA6842F00102DA60DB6813F0020F20D0324DEB689CB232490A69120A120402F47F02D1F890301B0A4A
:4026000042EA03632343EB600B6923F47F4343F410630B61D1F8903023F47F4343F41063C1F890300B69D1F89030224B00225A605B68224A136943F004031361012801D0D6
:4026400030BF07E020BF1E4B1B7803B120BF01221B4B1A70184BD3F8803003F00303022BE7D0144B1B68002BFBDA124BDB6813F0020F15D010490B6923F47F420D48C368A8
:402680001B0C1B0203F47F4313430B61D1F8903023F47F42C3681B0E42EA0323C1F89030044BDA6822F00102DA6000225A6030BC704700BFE00023400000214000ED00E04C
:4026C000B04902081E4A136943F004031361012801D030BF07E020BF1A4B1B7803B120BF0122184B1A70184BD3F8803003F00303022BE7D0154B1B68002BFBDA144BD3F833
:402700000C31C3B941F61E72124B1A60062203F582631A603E22A3F214431A60442203F583631A600C4B1B68002BFBDA4FF0AA32074BC3F80C210022044B5A60704700BF6F
:4027400000ED00E0B049020800002140E000234000002540080126401C05264001B40248844601BC604700BFF10C081001B40248844601BC604700BFBD06081001B40248C3
:40278000844601BC604700BFD507081001B40248844601BC604700BF5D08081001B40248844601BC604700BF6B0F081001B40248844601BC604700BF390A081001B402480B
:4027C000844601BC604700BF630F08100000000000000000000000000000000000000000000000000000000000000000000000000000000000000000000000000000000062
:0200000490303A
:02000000039962
:0200000490501A
:0C0000000005E20721002101E21524990F
:00000001FF