:020000041008E2
:4000000000780408F90208100D00000061030810610308106103081061030810000000000000000000000000000000005D0308105D030810000000005D0308105D0308104C
:400040005D0308105D0308105D0308105D0308105D0308105D0308105D0308105D0308105D0308105D0308105D0308105D0308105D0308105D0308105D0308105D03081000
:400080005D0308105D0308105D0308105D0308105D0308105D0308105D0308105D0308105D0308105D0308105D0308105D0308105D0308105D0308105D0308105D030810C0
:4000C0005D0308105D0308105D0308105D0308105D0308105D0308105D0308105D0308105D0308105D0308105D0308105D0308105D0308105D0308105D0308105D03081080
:400100005D0308105D0308105D0308105D0308105D0308105D0308105D0308105D0308105D0308105D0308105D0308105D0308105D0308105D0308105D0308105D0308103F
:400140005D0308105D0308105D0308105D0308105D0308105D0308105D0308105D0308105D0308105D0308105D0308105D0308105D0308105D0308105D0308105D030810FF
:400180005D0308105D0308105D0308105D0308105D0308105D0308105D0308105D0308105D0308105D0308105D0308105D0308105D0308105D0308105D0308105D030810BF
:4001C0005D0308105D0308105D0308105D0308105D0308105D0308105D0308105D0308105D0308105D0308105D0308105D0308105D0308105D0308105D0308105D0308107F
:400200005D0308105D0308105D0308105D0308105D0308105D0308105D0308105D0308105D0308105D0308105D0308105D0308105D0308105D0308105D0308105D0308103E
:400240005D0308105D0308105D0308105D0308105D0308105D0308105D0308105D0308105D0308105D0308105D0308105D0308105D0308105D0308105D0308105D030810FE
:400280005D0308105D0308105D03081010B5054C237833B9044B13B10448AFF300800123237010BD5448020800000000F8290810084B10B51BB108490848AFF3008008485E
:4002C000036803B910BD074B002BFBD0BDE81040184700BF0000000058480208F829081020430208000000007047EFF3108072B6704780F310887047FFF7F6FF72B6114C25
:40030000114DAC4209DA21686268A368043BA2BFC858D050FAE70C34F3E70C490C4A00209142BCBF41F8040BFAE70A480A490860BFF34F8F00F006FA00F0E0F900F01EF8B7
:40034000FEE70000FC290810142A081054480208004C02080040020808ED00E0FEE7FEE700B504207146084202D0EFF3098001E0EFF30880043000F0F1FEFEE708B500F019
:40038000C3F800F0C9F800F0DDF8FAE7002304E050F823202AB90133DBB22B2BF8D9012070470020704700BF0122002303E050F823104A400133B3F5007FF8D310467047FF
:4003C0002DE9F0414FF0A050FFF7E0FF80462C2001F0BEFF07464FF0A054054604F1200E26460FCE28606960AA60EB60344610357645F5D107CC28606960AA603846FFF733
:40040000D3FFBB6A984202D1B8F1000F04D0B8F1000F03D0002402E0002400E00124384601F09EFF2046BDE8F08100BF08B5002306E050F82310064A42F823100133DBB2CC
:40044000092BF6D9FFF7B0FF014B9862184608BDAC4A020808B501464FF0A05000F0ACFD08BD00BF10B52C2001F072FF04462C22002101F088FF21464FF0A05000F09CFD58
:40048000204601F06DFF10BD104AB2F8B210104B1960B2F8BC105960B2F8C6109960B2F8D010D960B2F8DA101961B2F8E4105961B2F8EE109961B2F8F810D961B2F80211F6
:4004C0001962B2F80C215A62704700BFD84A0208804A020838B500231C460DE050F8232051F82350521BB2F57A6F07D303EB830202EB82040133DBB2092BEFD9084601F019
:400500002FFF204638BD00BF08B562B600F09AFE01F0CEF808BD00BF08B501F079F860B900F0A6FEFFF7B0FF4FF0A0510348FFF7D1FF034B186001F0BBF808BD804A020826
:40054000A84A020810B5FFF73BFF50B1FFF78AFF0448FFF76BFF0446FFF77CFF204601F0FFFE10BD804A0208704700BF5C4AD2F8803303F00F0303F1D00152F8212002F0CE
:400580000702032A04D0042A05D092B9554914E0554A116811E003F1C002514951F8222002F01F02112A06D0132A04D04FF4FA4103E04E4901E04FF400418BBB484BD3F837
:4005C000902502F00100D3F88825C2F30172D3F8883513F0405F07D0414BD3F88835C3F30173012B02D102E0012300E0002303B108B9032A46D13A48D0F88025C2F31103FB
:40060000D0F88425C2F30C02D0F88005C0F300600130B1FBF2F202FB03F2B2FBF0F131E0012B2FD12E4BD3F8402602F00100D3F80026C2F30172D3F8003613F0405F07D078
:40064000274BD3F80036C3F30173012B02D102E0012300E0002303B108B9032A12D12048D0F8002602F07F02D0F80036C3F30423D0F80006C0F3044002FB01F2B2FBF3F265
:40068000B2FBF0F1164BD3F88033C3F3011321FA03F215494A601648D0F89030C3F3072301330069000E0130B2FBF0F08860B2FBF3F3CB600B6103F5742202F23F220D4872
:4006C000A0FB0202C2F387420A7503F2E7330A4AA2FB03239B098B61DB03CB61704700BF0000264000127A008C42020800366E010000214083DE1B43D34D621008B5104BEF
:40070000D3F8802122F0404242F08042C3F88021D3F8802142F00042C3F88021D3F8802122F00102C3F88021FFF71EFFFFF71EFF00F022F800F028F800F018FC08BD00BF88
:400740000000264008B5FFF7D0FD074AD2F8883043F47003C2F88830BFF34F8FBFF36F8FFFF7C7FD08BD00BF00ED00E008B5012000F03AFB08BD00BF08B500221146042078
:4007800000F0C0F808BD00BF10B5064800F076F900F03FFD0446044800F0DCF9204600F03CFD10BD704802088025081038B50C4B9A680C4B9A420ED10D46044619B9FC2155
:4007C000094800F0BBFC04F11003064A52F8230042F8235038BD1030044B53F8200038BD00ED00E000400208BC2508100000081070B338B504460D464368072B03D93621C6
:40080000154800F09BFCB4F900306268002B08DB5201D2B203F1604303F5614383F8002305E003F00F035201D2B20C49CA540C4B9A680C4B9A420DD11DB94521064800F05F
:400840007DFC2946B4F90000FFF7B0FF002038BD05487047002038BDBC25081014ED00E000ED00E0004002080100560038B50369002B0DDA0D4604460B0C1B0423B140F284
:40088000B321044800F05AFCA9B26160002038BD014838BD0026081001008A0038B50368002B01DA002300E0094B73B90D460446C2600B0C1B0423B140F29A21054800F0C6
:4008C0003DFCA9B2A160002038BD014838BD00BF01008A000026081038B504460D4619B99921064800F02AFC2369002B03DAE3682B60002038BD024838BD00BF4026081013
:4009000001008A000F2840D8F8B515460E46044682B979B90F2804D940F2A911214800F00DFC600100F1804000F50C101E4B18600020F8BD5DB366B316F01F0F2BD10F2CFB
:4009400004D940F2A911174800F0F8FB640104F1804404F50C14144F3C607E60BD60F2080021284601F00FFD00212046FFF77EFF3A4652F8040B0021FFF790FF68B90021FA
:400980003868FFF773FF50B9F8BD084870470748F8BD0648F8BD0548F8BD0548F8BD0448F8BD00BF80260810F049020803018A0001018A002DE9F0411B4B1B68DC68236885
:4009C00083422CD90D464609A0EB4610012303FA00F819B900F01DFC074600E00027124B18680368002B01DA002300E00F4B83B9626852F8263018EA030F05D023EA080310
:400A000042F82630002400E0094C0021FFF72EFF00E0084C25B9384600F0FFFB00E0064C2046BDE8F08100BFF049020801008A00020188000301880004018A000B4B1B6855
:400A4000DB681A6882420CD94109A0EB4110012202FA00F05B6853F82130184203D004487047044870470448704700BFF04902080101880004018A0000018800024B1B68CA
:400A80000BB9014B18607047FC4902082DE9F8430446884691461E46089F2A4B1B681BB9B421294800F04AFB072C03D9B521264800F044FB234B1B682C2000FB04F01C1834
:400AC000F5B21D50C6F307236360360CA6600F2D04D940F2A9111D4800F030FB6D0105F1804505F50C15256165680F2D04D94FF4E271164800F022FB154B03EB4515656150
:400B0000A668330C1B0423B14FF4F1710F4800F015FB330C1B0423B140F2E3110B4800F00DFBB3B243EA0646AE60C4F81C90C4F820800023A36117B1B7F90030A381BDE88E
:400B4000F88300BFFC490208C02608108026081000102340F0B58FB0044618B950212C4800F0ECFAA369072B03D95421284800F0E5FAE36A1BB95621254800F0DFFAE3681C
:400B8000072B03D95721224800F0D8FA236A072B03D958211E4800F0D1FA236B1BB959211B4800F0CBFA07AE04F114050FCD0FC62F6802AD26460FCE0FC533682B60079BBB
:400BC0001933ADF83030089B0D93A26AE16A0CAD00953B460A98FFF759FF00210091069B0A460598FFF752FF216B2846FFF700FEBDF93030002B08DB590903F01F03012218
:400C000002FA03F3034A42F821300FB0F0BD00BFC026081000E100E0F8B506460F461D4614461AB9FD21264800F088FA254B1B681BB9FE21224800F081FA072E03D9FF2138
:400C40001F4800F07BFA072F04D94FF480711C4800F074FA1B4B1B682C2101FB063001FB07314B68012202FA03F31B04466802FA06F60269EAB18F69EFB91268002A01DA51
:400C8000002200E0104AC2B92288134323600369DC6001238B614D620469330C1B0423B140F29A21094800F049FAB2B2A2600020F8BD0748F8BD0748F8BD0648F8BD00BF5E
:400CC000C0260810FC49020801008A008026081004028A0007028A00F8B505460F461646124B1B6823B940F26111114800F026FA072D04D94FF4B1710D4800F01FFA0B4B9F
:400D00001B682C2404FB0534236A23B94FF4B371074800F013FAE369B34204D9236A43F826700020F8BD0348F8BD00BFFC490208C02608100A028A0070B582B0002301938B
:400D4000044620B94FF4EA71264800F0F7F9236923B940F2D511234800F0F0F9636923B94FF4EB711F4800F0E9F9236A23B940F2D7111C4800F0E2F96369DD682A0C1CD03B
:400D800012041A601B6820690369002B15DA01A9FFF7A2FD60B9019803681E0CDBB2E269934206D2226A52F8233013B1984700E0002631462069FFF759FDADB275B1636997
:400DC000ADB21D601B68636A1BB198470023636202E0A36A03B198470023A36163691B6802B070BDC026081010B504460B4B1B6823B94FF4DA710A4800F0A0F9072C04D922
:400E000040F2B511064800F099F9044B1B682C2000FB0430FFF790FF10BD00BFFC490208C026081000F17043B3F5801F01D2580A704700F16C43B3F5004F03D25B0A43F460
:400E40008030704700F16A40B0F5004F03D2400A40F4003070474FF0FF30704710B50446FFF7E0FFB0F1FF3F04D0C4F308041CB1002010BD002010BD012010BD1F4B9842EA
:400E80002DD00CD840282ED003D8E8B1102828D02FE0802829D0B0F5807F28D029E0184B984228D006D8B0F1204F0DD0154B984212D01EE0144B98420AD00133984209D0DE
:400EC000023B984215D101E0002070470F4870470F4870470F4870474FF4A0007047074870470D4870470D4870470D487047034870470C4870474FF4A4007047060052004C
:400F0000010000F0090000A0040000F0010052000200520003005200010050000200500005005200FF00520008B50C4B1B69002B12DB0B4B1868FFF7A1FF0122094BC3F88E
:400F40008C24084BD3F80C34002BFAD1054BD3F88C34002BF5D108BD034808BD20002340004A0208000025400200500000B583B05523ADF80030002301930C496846FFF759
:400F800037FCBDF90030002B08DB590903F01F03012202FA03F3064A42F82130022205490120FFF799FE03B05DF804FBA143020800E100E07543020838B505460C46FFF78B
:400FC0004DFF28B334B3FFF7D1FA134B134A1A6000225A609D60DC60114A13691169C1F307221B0E591C02FB01110E4B03FB01F10D4B1B680D4AA2FB03239B09B1FBF3F18B
:4010000001F5195108314FF4807001F0B1FA38BD074838BD064838BD004A02080001000500002140C0EA210190420208D34D6210060052002DE9F04104460D461746984660
:401040009DF81860072903D9D121344800F076F837F00F0303D0D221304800F06FF8B8F1010F03D9D3212D4800F068F836F01F0303D0D421294800F061F822680123AB400C
:4010800022EA030308F0010808FA05F843EA08032360A36AA9000F228A4023EA020207F00F0303FA01F71743A762072D04D940F245211B4800F042F836F01F0304D040F2BC
:4010C0004621174800F03AF804F13F4404F54E04E40904F1806404F544342401032D0DD82268ED001F23AB4022EA030306F01F0606FA05F51D432560BDE8F081043D626803
:40110000ED001F23AB4022EA030306F01F0606FA05F51D436560BDE8F08100BF002708104027081008B5034B1B7800FB03F000F067F808BDA042020801BEFEE738B50D4646
:40114000044C18220146204601F0E2F9A5610020FFF7F2FFC0470208FEE700BF08B50268254BDA6142681A6282685A62C2689A620269DA6242691A6382695A63C2699A6347
:401180001E4A916AD963D16A1964516A5964516B9964926BDA64F1EE103A13F0900F27D0026A154B1A65426A5A65826A9A65C26ADA65026B1A66426B5A66826B9A66C26B2A
:4011C000DA66026C1A67426C5A67826C9A67C26CDA67026DC3F88020426DC3F88420826DC3F88820C26DC3F88C20026EC3F89020FFF7B2FF08BD00BFC047020800ED00E04F
:401200000230800803D001300238FCD100BF00BF7047EFF3108072B6704780F31088704708B5074B1B7833B900F0FCF800F032F90122034B1A7000F03DF800F00DFB08BD37
:40124000404A020810B5FFF7EBFF044610B900F0E3FA044614B900F02BFA044600F0D8F90028FBD100F020F900F068F9204610BD70B50E4D0026344614E0630904330C4A90
:4012800052F8233004F01F02D34013F0010F07D0284600F047F806462946204600F090F81C350134092CE8D9304670BDBC270810D84A020870B500230AE0124A191D02EB52
:4012C0008100002444604FF0FF3042F821000133002BF2D00C4C0A230FE06668A27E094B2B4400211976012A05D1206918B1228BF17901F048F81C342B465D1E002BECD127
:4013000070BD00BFD84A0208BC27081030B40B884A889C1A0025CD800079844200DDCC8030BC70472DE9F84307468468466890F81A900025A8460BE04A462146304600F059
:4013400013F9804621463046FFF7E0FF0A3401353B8B9D42F0D34046BDE8F883F0B50C8B8D684F680A69012324E010EA030403D17E88B979314402E07988BE79891BEE882E
:40138000B14201D3002100E01946A14202D01678013E1670A14201D014783CB920EA0300084309B9F97900E0012111705B000A350132744604F1FF3E002CD6D1F0BD00BFC2
:4013C00038B504468A7E154B03441D7E012A04D12846FFF7C3FF054604E040F226411048FFF7ACFE0D4B23441D76620904F01F04012303FA04F445B90432084B03EB8202A0
:40140000536823EA0404546038BD0432034B03EB820253681C43546038BD00BFD84A02088027081038B5194D4FF48E720021284600F0A9FF4DF60A232B804FF410636B8057
:4014400041F66A03AB8008236B84042385F824300F4C8C2204F5927105F1260000F088FF20460C340A230CE0A268238B04E010F8013B53720A320B46591E002BF7D11C3448
:401480002B465D1E002BEFD138BD00BFD84A0208B02708100023024AD380024A13607047D84A02086C4A0208704700BFC9B2062902D083180021197130F8121000EB4203B0
:4014C0005980024400231372704700BF70B506460D46012305E0224629463046FFF7E6FF23465C1E002BF6D170BD00BF70B5084DC3001A1A940022462C44A66801EB8101A0
:401500004C002A44917E3019FFF7E0FF70BD00BFBC27081038B50546C0EBC0029300064A13441B8B04E021462846FFF7DFFF23465C1E002BF7D138BDBC27081010B50A2313
:4015400003E02046FFF7E6FF23465C1E002BF8D110BD00BF00FA03F3C2F5807001FB00F102FB0310000A70472DE9F04106460D461746012342E035F8140005EB44035988AD
:40158000884207D3431A2A194FF0000E82F808E0012201E00B1A002292B996F805E073450ED92B191B7A327A934205D3224639462846FFF77BFF20E02A19013313721CE0A1
:4015C00096F804E0734504D996F805E0734514D89AB9FBB2062B10D005EB040898F804E0082301224EEA0121FFF7B4FFC0F30F2205EB44035A8088F8040023465C1E002B74
:40160000B9D10020BDE8F08100230B73704700BF024BD86800F08000704700BFD84A0208034B0340034AD0681843D060704700BF80000100D84A0208034B0340034AD0685A
:4016400020EA0300D060704780000100D84A020810B50F4BDB6813F4803F0ED109280ED8430904330A4A52F8233000F01F02D34013F0010F05D1012404E0112402E00124E5
:4016800000E000240CB900F011FD204610BD00BFD84A020808B5054BDB6813F4803F03D100F054FC002008BD112008BDD84A0208124BDB6813F0800F1AD110B500244FF0CF
:4016C000FF3312E02046FFF7C3FF034660B9082C03D801220A4B1A7002E00022084B1A70FFF7D8FF034606E00134092CEAD902E0112318467047184610BD00BFD84A0208EA
:40170000704A020830B583B00025074C08E02179002300930E222068FFF78CFC08340135092DF4D903B030BD6029081038B51B4A53780133DBB253705078FFF789FF044600
:4017400050B9164B5B78DBB2092B02D10022134B1A70FFF79FFF1EE0104B5B78DBB2092B10D10F4D2B8901332B818020FFF764FFEB6823F07F43EB60EB6843EA0464EC609C
:40178000002408E0064BDA6822F07F42DA60DA6842EA0062DA60002CC9D138BD704A0208D84A020810B50146124BB3F90030002B0DDB5A0903F01F03012404FA03F320328D
:4017C0000D4840F82230BFF34F8FBFF36F8F094C2046FFF70DF8B4F90030002B08DB590903F01F03012202FA03F3034A42F8213010BD00BFB425081000E100E008B5034681
:40180000092801D8002000E0012018B91846552100F016FD08BD00BF38B50024254604E02046FFF7EBFF05430134092CF8D9284638BD00BF10B5002409E0C4EBC40293002C
:40184000044A134459682046FFF7DEFE0134092CF3D910BDBC27081008B5FFF7EBFFFFF751FF00F001FA002008BD00BF70B5002514E0C5EBC50293000A4AD658002404E088
:4018800006EBC40000F0AEFB0134C5EBC5029300044A13441B7E9C42F2D30135092DE8D970BD00BFBC27081010B50B4A136823F4F8531360094C02236360A36A23F0F003EC
:4018C00043F06003A3620120FFF72CFCA36A23F0F003A36210BD00BF70003140800332400F4B1B78C3EBC3039A000E4B1A4453680D4AD2F8D02091B2188801238340013B10
:40190000994206D2094B1B680949097823F811207047064A12680649097822F811307047714A0208BC27081000003640F44B0208B029081038B5234A1378234CC3EBC30363
:401940009900214448681378C3EBC3039A002244127E013A1D4B1B78DBB29A421CD91B4C23780133DBB22370164D2B78C3EBC3039A00154B1A449168237803EB83035A000C
:401980000A44134B1A6000F005FA2878217800F017FB00F061FA38BD00220C4B1A704FF48030FFF749FE0B4B1B78012B02D1FFF7BDFE38BD8020FFF73FFE074A13890133E2
:4019C000138138BD714A0208BC270810724A0208F44B0208704A0208D84A020808B5074B4FF483721A601B68FFF77AFF044A1389013313810348FFF71FFE08BDF0003640B1
:401A0000D84A02088000010010B50C4B1B78C3EBC3039A000A4B9B580A4A147803EBC404094B4FF483721A601B68FFF759FF204600F0D8FAFFF77EFF10BD00BF714A02089B
:401A4000BC270810724A0208F000364001390843014B1860704700BF000236400F4B1B6823F4F8730E4A92F824100E4AB2FBF1F20D498A4204D843F02003084A13607047DB
:401A80000A498A4204D843F03003044A1360704743F04003014A1360704700BFB0420208D84A020880F0FA02001BB70000366E01044A054B1A604FF0C17203F580731A60A9
:401AC000704700BF0000830100043640084A136803F07F0343F0C17343F48033136002F58072136803F07F0343F400031360704700043640074A136843F0805343F00103AC
:401B00001360054A054B1A604FF0C17203F580731A607047A8023640000083010004364010B40488012000FA04F4013C04EB840303FA00F00C4BA3FB00035B09013358186A
:401B4000844200D220468B4201D8C91A00E00021914203D8904203D2062002E0062000E000205DF8044B70471F85EB510023154A1360154902F59272116004321360062190
:401B80002C3A1160012211490A6090390A60104A4FF48371116012680E4A136003220E4B1A604FF4FA6300E0013B094A126812F0040F01D1002BF7D113B90822064B1A60D1
:401BC000704700BF8C0136400101010080023640F0003640F8003640400336401B4B4FF483721A601B681A4BB3F90030002B08DB590903F01F03012202FA03F3154A42F8D5
:401C000021300023144A136030321360043213602C3A13605021983A11600121643A11600C3A136002220D4B1A604FF4FA6300E0013B0B4AD2F8842012F0070F01D0002BE1
:401C4000F6D140F20132074B1A607047F0003640B425081000E100E080023640F8003640000036404003364010B5FFF7FFFDFFF71BFE4FF480323C4B1A603C490B6843F021
:401C8000805343F001030B600023394A136002F5E07213600C32136060321360A2F5CE72136002F582721360083A136031480360A2F5807213604FF0487402F5A87214606F
:401CC0002D4CA26A22F0F002A262A4F58134A4F58874226822F4F85242F48062226004F5A02404F50974226842F4805222600124224A14600A6842F0805222430A604FF020
:401D0000807204390A6040F64134A1F58E710C6001F584710B600260FFF7CAFE184B93F82430013BFF2B09D81649D1F8002822F47F421B029BB21343C1F80038FFF78EFE05
:401D4000114B1B6843F0004343F480530F4A13600F220F4B1A600022A3F588731A600A2203F590731A6010BD04023640A8023640F40036408402364080033240A002364087
:401D8000D84A020800000140B0420208000036400003364038B50546FFF73BFA0D490B6823F07F020C4B1C7825446B7A13430B60FFF733FAFFF72DFA08490B6823F07F0279
:401DC000074B1B681C44637A13430B60FFF725FA38BD00BF00043640B029081000053640F44B020810B401228A40531E40B10F2904D9A2F10A03B3FBF0F301E0B3FBF0F34D
:401E00000BB9012000E018465DF8044B704700BF08B5094B1B78C3EBC3039A00074B1A44536859891B7B1804053B012B01D840F00070FFF70BFE08BD714A0208BC2708104B
:401E400008B5027B01884089FFF7CCFF80B2014B186008BD1403364008B50D4BB3F90030002B0DDB5A0903F01F03012101FA03F32032084941F82230BFF34F8FBFF36F8FD0
:401E80000122054B1A60FFF771FEFFF7A7FE08BDB425081000E100E08001364008B50448FFF7BEFB1720FFF73DF9FFF7D5FF08BD80000100F8B50546FFF7ABF906462F6827
:401EC0002C79072C04D94FF464711F48FFF736F9A400BA6A0F23A34022EA0301062202FA04F30B43BB622C682D79072D04D940F245211548FFF722F904F13F4303F54E0305
:401F0000DB0903F1806303F544331B01032D0BD81A68ED001F21A94022EA01010B2202FA05F50D431D600BE0043D5A68ED001F21A94022EA01010B2202FA05F50D435D6070
:401F40003046FFF76AF9F8BDB429081070B5164E3378164CC3EBC3039A0022445068144D00232B703378C3EBC3039A00224491682B7803EB83035A000A440E4B1A60FFF767
:401F800009FF3378C3EBC3039A00A358287803EBC000094B1860FFF78DFF0848FFF702FCFFF77CFF70BD00BF714A0208BC270810724A0208F44B0208F84B0208091A0810D1
:401FC00008B5C0EBC0008300044AD05800EBC100034B1860FFF76EFF08BD00BFBC270810F84B0208F8B50646FFF713F9074634683579072D04D940F245212248FFF79EF8EE
:4020000004F13F4303F54E03DB0903F1806303F544331B01032D08D81A68ED001F2101FA05F522EA05051D6008E0043D5A68ED001F2101FA05F522EA05055D603568347929
:40204000072C04D94FF464710E48FFF777F8A400AA6A0F23A34022EA03010E2202FA04F30B43AB6235683479072C04D940F247310448FFF763F80123A3406B603846FFF73B
:40208000CCF8F8BDB429081008B5064B1B78012B06D1054B1868FFF7A5FF0022014B1A7008BD00BF734A0208F84B020870B5104DC0EBC00293002B445C68C0B20D4E3070F2
:4020C000FFF7E2FF3378C3EBC3039A00AA580A4B1A600A4BDA6822F07F02DA603178DA680A43DA602046FFF7ABFEFFF791FE70BDBC270810714A0208F84B0208D84A0208B9
:4021000038B5C3001A1A9300104A13445D68C9B20F4C21709968237803EB83035A000A440C4B1A60FFF7C2FF2846FFF733FE2078094A136803EBC0001060FFF7BBFE012220
:40214000064B1A700648FFF72DFB38BDBC270810724A0208F44B0208F84B0208734A0208DD1908102DE9F84307460D4690462C490B78C3EBC3039A002A4B1A4456684FF05A
:40218000000985F800900878274B1978FFF7B8FFFFF79CFC8024B94503D22B7823EA04032B7064082B7823432B703046FFF7F2FDFFF774FE1D4B00E0013B1D4AD26812F088
:4021C000800F01D0002BF7D11A4B1B68B3F80090002CE0D1124B1B78C3EBC3039A00114B9B58114A107803EBC000134B1860FFF7F9FE0022114B1A70FFF77CFC4A46394666
:402200003046FFF78DFC98F800202B789A4201D288F80030074B1B682A785A72BDE8F883714A0208BC270810724A020824330300D84A0208F44B0208F84B0208734A02082B
:402240002DE9F04383B004460F46C0EBC0023A4B03EB82035E6801238DF80430B14639F8098B03FA08F303F1FF3801FB08F3334AA2FB03384FEA5818C2B2314B1A70314874
:40228000FFF790FA0025304B1D700AE001AA49464046FFF767FF05432B4A13780133DBB21370C4EBC403244A02EB8303DA7E264B1B78DBB29A42E9D89DF8043001335B08A2
:4022C00073720022204B1A7024E0C4EBC4031A4A02EB83039A681C4B1B7803EB830302EB43021A4B1A60537A717A8B420BD35B1ADBB207FB03F363331049A1FB0313C3F35C
:402300004713537201E0002353720F4A13780133DBB21370C4EBC403074A02EB8303DA7E094B1B78DBB29A42CFD80022064B1A70284603B0BDE8F083BC2708101F85EB51F3
:40234000714A0208DD190810724A0208F44B0208024B0146186800F06DB800BF14430208024B0146186800F017B800BF1443020810B5431E0A44914204D011F8014B03F8D4
:40238000014FF8E710BD02440346934202D003F8011BFAE77047000038B50546002946D051F8043C0C1F002BB8BFE41800F0C3F81F4A1368114613B96360146032E0A34293
:4023C0000ED92268A018834204BF18685B68636004BF121822600C6024E0A24203D813465A68002AF9D118681918A1420BD12168014458188242196014D1106852685A60BD
:40240000014419600EE002D90C232B600AE021686018824204BF10685268626004BF091821605C602846BDE8384000F085B838BD784A020870B5CD1C25F0030508350C2DBA
:4024400038BF0C25002D064601DBA94202D90C23336046E000F06FF8234B1C681A462146A1B10B685B1B0ED40B2B03D90B60CC18CD501EE08C420DBF63684B68636013603A
:4024800018BF0C4615E00C464968E9E7174C23681BB9304600F02CF820602946304600F027F8431C18D0C41C24F00304A0420DD12560304600F040F804F10B00231D20F0F6
:4024C0000700C31A0ED05A42E25070BD211A304600F00EF80130EBD10C233360304600F02BF8002070BD00BF784A0208744A020838B5064C002305460846236000F01EF81C
:40250000431C02D1236803B12B6038BDFC4B020810B5034642B111F8014B03F8014B013A002CF7D11A4400E010BD934202D003F8014BFAE710BD704770470000044A0549DC
:402540001368002B08BF0B4618441060184670477C4A0208004C0208F8B500BFF8BC08BC9E467047F8B500BFF8BC08BC9E46704701B40248844601BC604700BFED44020871
:402580000300000001000000010000000000000005036000040000000100000000000000010000000604600008000000D04902086D070810310000000700000047656E65D0
:4025C00072617465645F536F757263655C50536F43365C70646C5C647269766572735C7065726970686572616C5C737973696E745C63795F737973696E742E6300000000BD
:4026000047656E6572617465645F536F757263655C50536F43365C70646C5C647269766572735C7065726970686572616C5C6970635C63795F6970635F6472762E68000029
:4026400047656E6572617465645F536F757263655C50536F43365C70646C5C647269766572735C7065726970686572616C5C6970635C63795F6970635F6472762E630000EE
:4026800047656E6572617465645F536F757263655C50536F43365C70646C5C647269766572732F7065726970686572616C2F6970632F63795F6970635F6472762E68000030
:4026C00047656E6572617465645F536F757263655C50536F43365C70646C5C647269766572735C7065726970686572616C5C6970635C63795F6970635F706970652E63000C
:4027000047656E6572617465645F536F757263655C50536F43365C70646C5C647269766572735C7065726970686572616C5C6770696F5C63795F6770696F2E6300000000F2
:4027400047656E6572617465645F536F757263655C50536F43365C70646C5C647269766572735C7065726970686572616C5C6770696F5C63795F6770696F2E6800000000AD
:4027800047656E6572617465645F536F757263655C50536F43365C43617053656E73655F50726F63657373696E672E63000000002020202020202020202000006029081077
:4027C000FE4A02088A4B020800000000684A02080128000001000101682908100C4B0208944B020800000000644A02080128000001000101702908101A4B02089E4B0208D6
:4028000000000000604A0208012800000100010178290810284B0208A84B0208000000005C4A0208012800000100010180290810364B0208B24B020800000000584A0208AA
:40284000012800000100010188290810444B0208BC4B020800000000544A0208012800000100010190290810524B0208C64B020800000000504A0208012800000100010182
:4028800098290810604B0208D04B0208000000004C4A02080128000001000101A02908106E4B0208DA4B020800000000484A02080128000001000101A82908107C4B020844
:4028C000E44B020800000000444A020801280000010001010C00640028280A031E20040000000C00640028280A031E20040000000C00640028280A031E20040000000C00A2
:40290000640028280A031E20040000000C00640028280A031E20040000000C00640028280A031E20040000000C00640028280A031E20040000000C00640028280A031E205C
:40294000040000000C00640028280A031E20040000000C00640028280A031E20040000008004324005000000800332400700000000033240010000008003324005000000CE
:402980000003324003000000000332400400000080023240060000000003324000000000000332400500000080033240000000000000000047656E6572617465645F536F98
:4029C000757263655C50536F43365C70646C5C647269766572732F7065726970686572616C2F6770696F2F63795F6770696F2E680000000043000000000000000000081007
:402A0000004002088C0200001C2A08108C4202083405000054480208AC0300000048E80100127A0000093D0000127A0000127A0008000000401F00000000A00F02FF0000C8
:402A4000200000000000000000000000000000000000000000000000000000000000000000000000F429081000000000000000000000000000000000000000000000000001
:402A8000000000000000000000000000000000000000000000000000000000000000000000000000B4420208B10208108D0208100000000080B2C200E8B10F4B1B68002B0F
:402AC000FBDA3E210D4B196041F61E7104331960A3F584730621C3F8181522F07F42C3F81C25D3F81C350022034B5A60044BD3F81C35002BFADA7047E000234004012640D9
:402B00000000264008B54378FF2B0ED100F0E8F9064BDB685A68136843F001031360136813F0010FFBD100F0F3F908BD8000234038B54FF260034B4AD3589CB200F0D0F92C
:402B40000546494B9A68631E032B00F28780DFE803F002234465032A06D10822434B9A60414B9B68032BFBD03F4A13691069C0F307221B0E581C02FB00003D4B03FB00F09C
:402B80003C4B1B683C4AA2FB03239B09B0FBF3F08230FFF78FFF61E0032A06D10822334B9A60314B9B68032BFBD02F4A13691069C0F307221B0E581C02FB00002C4B03FBA2
:402BC00000F02C4B1B682C4AA2FB03239B09B0FBF3F08230FFF76EFF40E0032A06D10822224B9A60204B9B68032BFBD01E4A13691069C0F307221B0E581C02FB00001C4B15
:402C000003FB00F01B4B1B681B4AA2FB03239B09B0FBF3F08230FFF74DFF1FE0032A06D10822124B9A60104B9B68032BFBD00E4A13691069C0F307221B0E581C02FB0000D1
:402C40000B4B03FB00F00B4B1B680B4AA2FB03239B09B0FBF3F08230FFF72CFF284600F057F938BD0000254000002140A000234040420F0090420208D34D6210F8B50546B7
:402C80000E462A4B1B69002B1FDB002000F050F9274B98421BD00023264A0121184600F02FF918B1244C15E0013400E00024002000F03EF91E4B984202D0204B9C42F3D90F
:402CC0001E4B9C4205D91C4C04E01B4C02E01A4C00E000243CBB00F003F90746184BD3F81C35002B11DA174A0121174800F018F968B93046FFF7DEFE5DB1134B1B69002B84
:402D0000FBDB00F0F5F8044604E00B4C02E00A4C00E00E4C0121002000F012F90028F9D1384600F0F5F82046F8BD00BFA000234001018800AC42020805005200EF4902006F
:402D400000002640004A02082000234001005000394B1B68002BFBDA30B4374BDA6842F00102DA60DB6813F0020F20D0324DEB689CB232490A69120A120402F47F02D1F8E0
:402D800090301B0A42EA03632343EB600B6923F47F4343F410630B61D1F8903023F47F4343F41063C1F890300B69D1F89030224B00225A605B68224A136943F00403136164
:402DC000012801D030BF07E020BF1E4B1B7803B120BF01221B4B1A70184BD3F8803003F00303022BE7D0144B1B68002BFBDA124BDB6813F0020F15D010490B6923F47F42A7
:402E00000D48C3681B0C1B0203F47F4313430B61D1F8903023F47F42C3681B0E42EA0323C1F89030044BDA6822F00102DA6000225A6030BC704700BFE00023400000214011
:402E400000ED00E0104A02081E4A136943F004031361012801D030BF07E020BF1A4B1B7803B120BF0122184B1A70184BD3F8803003F00303022BE7D0154B1B68002BFBDAA7
:402E8000144BD3F80C31C3B941F61E72124B1A60062203F582631A603E22A3F214431A60442203F583631A600C4B1B68002BFBDA4FF0AA32074BC3F80C210022044B5A6034
:402EC000704700BF00ED00E0104A020800002140E000234000002540080126401C05264001B40248844601BC604700BF1312081001B40248844601BC604700BF290F0810C7
:402F000001B40248844601BC604700BF190C081001B40248844601BC604700BF1B12081001B40248844601BC604700BF9D08081001B40248844601BC604700BF3D0A081043
:402F400001B40248844601BC604700BFB50908100000000000000000000000000000000000000000000000000000000000000000000000000000000000000000000000008F
:402F80000000000000000000000000000000000000000000000000000000000000000000000000000000000000000000000000000000000000000000000000000000000011
:402FC00000000000000000000000000000000000000000000000000000000000000000000000000000000000000000000000000000000000000000000000000000000000D1
:0200000490303A
:020000003F3B84
:0200000490501A
:0C0000000005E20721002101E217603B2F
:00000001FF